:100000000C94C3010C9407020C9407020C94070291
:100010000C9407020C9407020C9407020C9407023C
:100020000C9407020C9407020C94081C0C94DA1C24
:100030000C9451120C9407020C9407020C940702C2
:100040000C9407020C9407020C9407020C9407020C
:100050000C9407020C94B9120C9407020C9407023A
:100060000C9407020C9407020C9407020C940702EC
:100070000C9407020C9407020C9407020C940702DC
:100080000C9407020C9407020C9407020C940702CC
:100090000C9407020C9407020C9407020C940702BC
:1000A0000C9407020C9407020C9407026A026C027B
:1000B00077026E02700272027402760279027B028B
:1000C0007D0288027F0281028302850287028A0202
:1000D000690969099C099C09DB09FB092B0B2B0B9E
:1000E000060A2B0BB60AB60A1C0B2B0B2B0B250B87
:1000F000C30AC30AC30AC30AC30AC30AC30AC30A98
:10010000C30AC30AC30AC30AC30AC30AC30AC30A87
:10011000D30AE10AE80AEF0AF90AA80BA80BBA0BFE
:10012000BA0BB10BBA0BBA0BBA0BA80BA80BB60BD8
:10013000BA0BBA0BB60B471D691D571E691D571E1A
:10014000AE1DD11D571E261E391E29001E001F0080
:100150002000210022002300240025002600270083
:100160002D002E00310035002B00000014001A0075
:100170000800150017001C0018000C0012001300E6
:100180002F0030002A00390000000400160007008C
:1001900009000A000B000D000E000F0033003400B0
:1001A00000002800E100000000001B00060019000C
:1001B0000500110010003600370038000000E5008F
:1001C0004C000000E00000000000E2000000000021
:1001D00000002C00000000000000E600E400000029
:1001E0001A0344006100730020004B006500790091
:1001F00062006F0061007200640000000803590093
:100200006F00750000000403090409026D00040179
:1002100000A0FA09040000010301010009211101F5
:1002200000012240000705810308000A09040100BB
:100230000103010200092111010001224D000705FF
:10024000820308000A0904020001030000000921DA
:10025000110100012236000705830308000A090482
:1002600003000103000000092111010001223900EF
:10027000070584032000011201100100000008EDB1
:10028000FE606001000102000105010906A10105EF
:100290000719E029E7150025019508750181020578
:1002A00008190129059505750191029501750391BC
:1002B000010507190029F71500250195F875018139
:1002C00002C005010980A101850216010026030074
:1002D0001A81002A8300751095018100C0050C0960
:1002E00001A1018503160100269C021A01002A9C27
:1002F00002751095018100C005010902A1010901E3
:10030000A1000509190129051500250195057501AB
:1003100081029501750381010501093009311581BB
:10032000257F95027508810609381581257F95017D
:1003300075088106050C0A38021581257F9501751F
:10034000088106C0C005010906A101050719E029B9
:10035000E715002501950875018102950175088151
:100360000105081901290595057501910295017589
:100370000391010507190029FF150026FF009506C6
:1003800075088100C00011241FBECFEFDAE0DEBF88
:10039000CDBF04B603FE24C08091280290912902AB
:1003A000A0912A02B0912B028730904BA740B04B0E
:1003B000B9F4109228021092290210922A02109287
:1003C0002B0214BE84B7877F84BF88E10FB6F894F0
:1003D00080936000109260000FBEE0E0FFE309959B
:1003E00011E0A0E0B1E0E6E2F0E402C005900D9279
:1003F000A634B107D9F712E0A6E4B1E001C01D921E
:10040000A832B107E1F70E943A190C9411200C941C
:1004100000000C94B1050C94B2050C9413020C94DA
:10042000350381E0089581E008950E94960B2FEF37
:1004300084E39CE0215080409040E1F700C0000040
:100440000C94DF120F931F93CF93DF938C01FC0169
:10045000C081D181CE010E945A10BE010E943C038E
:10046000EC01B8010E940D02882309F4F4C0B80120
:10047000CE010E946205882309F4EDC0C531FCE578
:10048000DF0708F07DC0C2308CE5D80708F452C001
:10049000F8018281882309F459C00E94EF1181116B
:1004A00002C00E94D5110E94021290E090931A029D
:1004B00080931902FE01E350FC45E231F10530F46E
:1004C000EA5AFF4F809119020C94C11F80911902C2
:1004D000816027C0826025C0846023C0806121C004
:1004E00080621FC080641DC080681BC084608860FB
:1004F00018C08E7F16C08D7F14C08B7F12C08F7E78
:1005000010C08F7D0EC08F7B0CC08F770AC08B7F91
:10051000877F07C087FB222720F991E0922790FB75
:1005200087F980931902809119020E9406120E9495
:10053000960B91C0C115ECE5DE0779F0C130DC45C2
:10054000A1F081E08093480180934901C801DF91C7
:10055000CF911F910F910C941102F8018281882391
:1005600009F479C00E94150276C0F80182818823BF
:1005700009F471C08091E50181608093E5016BC051
:10058000CD338CE5D80739F5F8018281882361F0F5
:10059000109249010E948312909347018093460173
:1005A00080E20E94240957C08091490181110FC047
:1005B00080914601909147010E948F12883C9105DD
:1005C00030F487E20E94020887E20E94D50880E2A8
:1005D0000E942B0940C0CE33ECE5DE0738F5CC3362
:1005E000DC4509F0AECFF8018281882351F01092EA
:1005F00048010E948312909347018093460182E054
:10060000D0CF8091480181110FC080914601909117
:1006100047010E948F12883C910530F486E20E94C7
:10062000020886E20E94D50882E0D2CFC0348CE571
:10063000D80731F4F8018281882369F080E009C08D
:10064000C134DC4509F07DCFF8018281882319F09F
:1006500082E00E94CB1980E0DF91CF911F910F9132
:1006600008950C9409020C940B0208950C940F0247
:1006700080E090E0089508959FE0799FF0011124B3
:100680009BE4899FE00DF11D1124E60FF11DEE0F93
:10069000FF1FE65BFE4F859194910895880F991F87
:1006A000FC01E052FE4F8591949108950E943C0315
:1006B0000E94E404811520E49207B0F5811540E31F
:1006C000940708F0DBC0803E9105D8F4803C91058A
:1006D00008F069C0883A910578F4853A910508F0E8
:1006E00065C08130910509F46EC108F425C18430DC
:1006F000910508F068C120C18D3B910508F461C0E7
:100700001BC18F3F910509F048F4803F910508F027
:10071000AFC0883E910508F456C10EC1811560E254
:10072000960708F0A7C00895811574E59707D8F4D7
:10073000811523E5920708F0DDC0811541E5940796
:1007400040F4811560E5960708F0A2C09F70906A9A
:100750000895811572E5970708F0B6C0982F88278D
:10076000816F906A0895811526E5920750F48115EE
:1007700045E5940708F0D4C0982F8827846F906AC5
:100780000895811568E5960708F4D6C0811579E5C6
:10079000970708F4CAC09C0130562115304208F072
:1007A000CBC09F71C7C0805C910965C0853A910537
:1007B00009F4C5C0863A910509F0C4C082E890E406
:1007C0000895883A910509F4C0C0893A910509F461
:1007D000BFC08A3A910509F4BEC08B3A910509F46D
:1007E000BDC08C3A910509F4BCC08B3B910509F45E
:1007F000BBC08C3B910509F4BAC08D3A910509F450
:10080000B9C0803B910509F4B8C08E3A910509F44E
:10081000B7C08F3A910509F4B6C0813B910509F440
:10082000B5C0823B910509F4B4C0833B910509F43E
:10083000B3C0843B910509F4B2C0853B910509F42E
:10084000B1C0863B910509F4B0C0873B910509F41E
:10085000AFC0883B910509F4AEC0893B910509F40E
:10086000ADC08A3B910509F4ACC080E094E40895E2
:10087000906508959F700E944E0308959C01332750
:1008800093FF03C0C901986C0895C901906C089545
:10089000482F437021E030E002C0220F331F4A95F9
:1008A000E2F73C68AC0164E0569547956A95E1F73C
:1008B0004370342B8F708695869560E2869FC001C9
:1008C0001124822B932B0895482F4695469570E26C
:1008D000479FA00111248370992721E030E0B901DE
:1008E00002C0660F771F8A95E2F7CB01842B952B08
:1008F0009C680895482F4695469570E2479FA00151
:1009000011248370992721E030E0B90102C0660FFD
:10091000771F8A95E2F7CB01842B952B9A6808956F
:100920008F719927982F882705C0982F8827806F67
:10093000906A08959062089580E090E0089581E8BB
:1009400090E4089583E890E4089582EE94E4089595
:1009500089EE94E408958AEE94E4089585EB94E496
:10096000089586EB94E4089583EB94E4089584EB72
:1009700094E4089587EB94E408958CEC94E408954E
:100980008DEC94E4089583E895E408958AE895E46D
:10099000089582E995E4089584E995E4089581E253
:1009A00096E4089583E296E4089584E296E4089537
:1009B00085E296E4089586E296E4089587E296E457
:1009C00008958AE296E408958238910549F1B0F4D9
:1009D0008133910509F458C048F48932910509F42E
:1009E0004EC08A32910509F454C0089585339105AB
:1009F00009F440C08933910599F00895833E91052B
:100A000029F138F4803E910591F0823E9105A1F0E4
:100A10000895863E9105F9F0873E910531F10895DC
:100A20002091190220FD3AC021FD38C0089580911F
:100A3000190280FD35C032C08091190282FF32C098
:100A40008091190284FD30C083EE39C08091190273
:100A500082FD28C0F5CF8091190283FF27C08091C5
:100A6000190284FD21C087EE2AC08091190283FDFE
:100A70001DC0F5CF8091190285FD1AC01BC0809161
:100A8000190285FD17C014C08091190286FD14C09B
:100A900015C08091190286FD11C00EC080EE0FC0F6
:100AA00089E30DC082EE0BC080E009C086EE07C06E
:100AB00089E205C085E303C08AE201C081E390E0DA
:100AC000089508950F931F93CF93FB012281211165
:100AD00002C0C1E041C08C01C0915701C11125C0C5
:100AE00085319C45B1F70E94610581E080935701F3
:100AF0000E948312909356018093550110924A01EF
:100B000010924C0110924B0110924E0110924D0127
:100B10001092500110924F01109252011092510107
:100B2000109254011092530117C080915501909179
:100B300056010E948F12883C910558F690914A0107
:100B4000E92FF0E0EE0FFF1FE55BFE4F11830083FE
:100B50009F5F90934A01C0E08C2FCF911F910F911E
:100B600008950895089585B7806885BF85B7806822
:100B700085BFA2E2B1E041E050E025E02A0F8D916F
:100B8000E82FE295EF70F0E031A18F70BA0102C05A
:100B9000660F771F8A95E2F7CB01962F90959323E6
:100BA00091A392A1892B82A32A13E9CFA3E1B1E0FB
:100BB00041E050E02FE02A0F8D91E82FE295EF7091
:100BC000F0E031A18F70BA0102C0660F771F8A95DD
:100BD000E2F7CB01962F9095932391A392A1892BB5
:100BE00082A32A13E9CFE2E6F1E0A8E5B1E0119291
:100BF00011921D921D9271E0EC36F707C1F70C942B
:100C000031032F923F925F926F927F928F929F92C9
:100C1000AF92BF92CF92DF92EF92FF920F931F930A
:100C2000CF93DF9322E2C22E21E0D22E08E511E01D
:100C3000E801EE24E394F12C662463945E0188803D
:100C4000998019821882D6018D916D01E82FE29565
:100C5000EF70F0E021A18F70A70102C0440F551F73
:100C60008A95E2F7CA01242B21A322A1742E709445
:100C7000272122A350EA5A95F1F793E1292E91E01A
:100C8000392E20E030E0D1017D911D01472F4295A2
:100C90004F7050E0DA0190965C90488159817F70E6
:100CA000D70102C0AA0FBB1F7A95E2F7BD016521EB
:100CB00041F4B701022E02C0660F771F0A94E2F7D3
:100CC00002C060E070E0462B572B598348832F5FAA
:100CD0003F4F2F303105B9F691A1792271A292A12F
:100CE000892B82A32296F50180819181881699062D
:100CF00041F060926C010E94831290936E01809388
:100D00006D01F1E0C236DF0709F098CF80916C01E8
:100D10008823B1F080916D0190916E010E948F1235
:100D2000069770F0E2E6F1E0D8018D919D918D017A
:100D300081939193B1E002361B07B1F710926C01D9
:100D40000E94330381E0DF91CF911F910F91FF90BB
:100D5000EF90DF90CF90BF90AF909F908F907F905B
:100D60006F905F903F902F900895E82FF0E0EE0F86
:100D7000FF1FEE59FE4F8081918108950895909351
:100D80007401809373010895E0917301F0917401EF
:100D9000309721F00190F081E02D099480E00895D2
:100DA000E0917301F0917401309721F00280F3819A
:100DB000E02D09940895E0917301F091740130974A
:100DC00021F00480F581E02D0994089520917101AE
:100DD000309172018217930771F0909372018093A2
:100DE0007101E0917301F0917401309721F0068058
:100DF000F781E02D0994089520916F0130917001E1
:100E00008217930771F09093700180936F01E091C6
:100E10007301F0917401309721F00084F185E02D89
:100E20000994089508950C9412070E947A120E9462
:100E3000B3050C9402134F925F927F928F929F9210
:100E4000AF92BF92CF92DF92EF92FF920F931F93D8
:100E5000CF93DF93CDB7DEB72A970FB6F894DEBFF6
:100E60000FBECDBF0E94010696E7C92E91E0D92E94
:100E700000E010E0AA24A394B12C702E802F0E94D1
:100E8000B5064C01F601419051906F014826592654
:100E900041145104B1F40F5F1F4F0530110569F77C
:100EA0008FEF89838A831B820E9483128160782F4F
:100EB0009D838C8349815A816B818D810E94D407E7
:100EC0003AC08091E50181FD0E94BE0620E030E03D
:100ED0007501022E02C0EE0CFF1C0A94E2F7C70156
:100EE00084219521892B09F12E837F828E209F20DA
:100EF00091E0892809F490E098870E94831281602C
:100F0000782F9A8789874E815F8168858A850E94BC
:100F1000D407000F111FF801EA58FE4F808191811C
:100F2000E826F926F182E08206C02F5F3F4F2F307E
:100F3000310571F6B0CF0E949514109175010E9491
:100F4000C4061817D9F00E94C406809375012A962A
:100F50000FB6F894DEBF0FBECDBFDF91CF911F91CA
:100F60000F91FF90EF90DF90CF90BF90AF909F9048
:100F70008F907F905F904F900C9436032A960FB617
:100F8000F894DEBF0FBECDBFDF91CF911F910F91BF
:100F9000FF90EF90DF90CF90BF90AF909F908F9099
:100FA0007F905F904F900895CF93DF93CDB7DEB7DA
:100FB0002B970FB6F894DEBF0FBECDBF4F83588777
:100FC00069877A878B87DE01119686E0FD01119291
:100FD0008A95E9F785E0FE01379601900D928A9592
:100FE000E1F749815A816B817C818D819E810E94CC
:100FF0002E0E2B960FB6F894DEBF0FBECDBFDF913D
:10100000CF910895CF93882309F4CDC0C82F82389B
:1010100059F40E94C40681FDC6C089E30E94D9101C
:101020000E94A61189E30CC0833879F40E94C4069B
:1010300080FDB9C083E50E94D9100E94A61183E506
:101040000E941B11CF910C94A611843859F40E9470
:10105000C40682FDA8C087E40E94D9100E94A61190
:1010600087E4EECF8CEF8C0F813A48F48C2F0E94EE
:10107000D616811198C08C2F0E94D910E3CF80E240
:101080008C0F883048F4C77081E001C0880FCA9582
:10109000EAF70E945F11D6CF8BE58C0F833078F48E
:1010A000C53A29F0C63A31F083E890E005C081E8FE
:1010B00090E002C082E890E0CF910C94E60688E5CB
:1010C0008C0F853108F06FC0C83A61F1C93A69F1F7
:1010D000CA3A71F1CB3A79F1CC3A81F1CB3B89F143
:1010E000CC3B91F1CD3A99F1C03BA1F1CE3AA9F1B7
:1010F000CF3AB1F1C13BB9F1C23BC1F1C33BC9F138
:10110000C43BD1F1C53BD9F1C63BE1F1C73BE9F1A5
:10111000C83BF1F1C93BF9F1CA3B09F43FC080E09B
:1011200090E03EC082EE90E03BC089EE90E038C097
:101130008AEE90E035C085EB90E032C086EB90E01F
:101140002FC083EB90E02CC084EB90E029C087EBAC
:1011500090E026C08CEC90E023C08DEC90E020C0A5
:1011600083E891E01DC08AE891E01AC082E991E02D
:1011700017C084E991E014C081E292E011C083E2DB
:1011800092E00EC084E292E00BC085E292E008C0DB
:1011900086E292E005C087E292E002C08AE292E035
:1011A000CF910C94FC06CF910895882309F44BC08D
:1011B000823859F40E94C40681FF45C089E30E9429
:1011C000D9100E94A61189E30CC0833871F40E94E3
:1011D000C40680FF38C083E50E94D9100E94A61182
:1011E00083E50E941B110C94A611843859F40E94C7
:1011F000C40682FF28C087E40E94D9100E94A6116D
:1012000087E4EFCF9CEF980F913A58F390E2980F54
:10121000983050F4877091E001C0990F8A95EAF7F1
:10122000892F0E946511DFCF9BE5980F933020F442
:1012300080E090E00C94E606885A853120F480E046
:1012400090E00C94FC060895882321F00E945F1121
:101250000C94A6110895882321F00E9465110C9426
:10126000A61108957F928F929F92AF92BF92CF92D4
:10127000DF92EF92FF920F931F93CF93DF931F9212
:10128000CDB7DEB77C01C62E772EFC010581029515
:101290000F70128111110E947C110E94D2108823BC
:1012A00079F0112369F080E28C0D883048F082E0FB
:1012B0000E94BB100E94D21091E0D82ED92601C006
:1012C000D12CE72DE295EF70F0E0E859FF4F0C9438
:1012D000C11F872D807F072D0F70882311F0029585
:1012E000007F112399F0002309F49CC180E28C0D4A
:1012F000883010F0C11004C0802F0E945F1103C01D
:10130000802F0E946F110E94A6118CC18C2D0E940B
:10131000D508002309F49FC180E28C0D883010F0BD
:10132000C11004C0802F0E94651103C0802F0E944D
:1013300075110E94A6118FC1872D807F972D9F70F8
:10134000803211F4892F03C0892F8295807FCC20B1
:1013500021F0F1E0CF16A1F01DC0112339F00023D8
:1013600019F1013009F50E948F1175C1002319F0A0
:10137000013009F470C189830E949211898110C1E2
:10138000112321F0063008F066C10EC0053008F0C8
:1013900062C106C1112359F0002331F0F701958194
:1013A00090FF40C19F7095830E94240954C100237F
:1013B00009F4F6C03DC1872D86958695837090E02F
:1013C000009719F0019761F046C1112321F08C2D8F
:1013D000972D937002C080E090E00E94E6063BC12A
:1013E000112321F08C2D972D937002C080E090E0A6
:1013F0000E94FC0630C18C2D112319F00E949D1310
:1014000002C00E9405140E948A1425C1872D837092
:1014100009F052C011111FC18C2D829586958770DD
:10142000880F880F9C2D9F70892E912CA12CB12C98
:10143000082E04C0880C991CAA1CBB1C0A94D2F765
:10144000C4FE14C00FE010E020E030E0B901A801B4
:1014500004C0440F551F661F771F8A95D2F7CB0132
:10146000BA01609570958095909503C060E070E03A
:10147000CB01272D26952695237030E022303105AB
:1014800069F02330310589F0682979298A299B2957
:101490002130310571F00E94710FDDC06829792972
:1014A0008A299B290E94830FD6C00E94710FC50113
:1014B000B4010E945F0FCFC0112319F0872D8170F6
:1014C00001C08695882309F4C6C08C2D8295869527
:1014D0008770880F880F9C2D9F70892E912CA12CCE
:1014E000B12C082E04C0880C991CAA1CBB1C0A94A1
:1014F000D2F7C4FE14C00FE010E020E030E0B901E4
:10150000A80104C0440F551F661F771F8A95D2F7A4
:10151000CB01BA01609570958095909503C060E00D
:1015200070E0CB01272D269526952370422F50E0A1
:101530004230510569F04330510589F06829792915
:101540008A299B294130510571F00E94351083C0D2
:10155000682979298A299B290E9447107CC00E940A
:101560003510C501B4010E94231075C08C2D90E088
:10157000FC01E05EF109E531F10508F04FC0E858E3
:10158000FF4F0C94C11F0C2D0F70872D8F711123ED
:1015900021F00E94BC0F802F07CF0E94DD0F802F0B
:1015A0000E942B0958C0112341F0053008F053C0A8
:1015B000872D8F710E9402104EC0063008F04BC07C
:1015C000F7CF112339F0872D8F710E94BC0F43C0D4
:1015D0001123C9F3872D8F710E94DD0F3CC01123A9
:1015E00029F0872D8F710E94A70F35C00E94A20F8E
:1015F00032C0112351F0172D1F71812F0E94BC0F93
:1016000063E0812F0E94B21026C081E00E94BB10CF
:10161000023008F182E00E94BB101DC0112331F09E
:10162000002389F28C2D0E94020815C0002391F23C
:101630008C2D0E94D5080FC0472D4F706C2DC7010F
:101640000E9438030E94D20E06C0472D4F706C2DA9
:10165000C7010E943B03DD20F9F00E94AE1080FD1F
:101660001BC0F70112820E94A8100E94BC0FC70184
:101670000E945B0B0E94A8100F90DF91CF911F91E9
:101680000F91FF90EF90DF90CF90BF90AF909F9021
:101690008F907F900C94DD0F0F90DF91CF911F9171
:1016A0000F91FF90EF90DF90CF90BF90AF909F9001
:1016B0008F907F9008950F931F93CF93DF93EC014A
:1016C000888199812B813C81232BB9F09F3F11F4B4
:1016D0008F3F99F0CE010E942202882371F0688129
:1016E00079818A810E94A4108C010E9459100E9465
:1016F0005C0FB801CE010E943209DF91CF911F919A
:101700000F9108950E947C110E948C110E9451112A
:101710000E94A6110E943B150E948A1480E090E06E
:101720000E94E60680E090E00C94FC060E946C119A
:101730000C94820B0E949910E92FE295EF70F0E073
:101740003297EE30F105B0F4E357FF4F0C94C11F10
:10175000803F91F018F4803E68F40EC0843F51F44D
:101760000BC0803E48F0813F29F406C093FB8827D8
:1017700080F9089580E0089581E00895CF93DF9384
:1017800000D000D01F92CDB7DEB70F900F900F9012
:101790000F900F90DF91CF910895CF93DF9300D0FA
:1017A00000D000D0CDB7DEB726960FB6F894DEBFD6
:1017B0000FBECDBFDF91CF9108951F93CF93DF93DD
:1017C000C091800116E080918101C81799F0D0E0A6
:1017D0001C9FF0011D9FF00D1124EE57FE4F40811C
:1017E000518162817381848195810E94CD0B219604
:1017F000C770E9CFDF91CF911F9108954091B20159
:101800005091B3016091B4017091B5018091B6011E
:101810009091B7010C94CD0B8091B70182958F7098
:1018200009F054C08091B401882309F44FC080911D
:101830008001A09181016091B2017091B30140914A
:10184000B5015091B601B6E08A1709F43FC090E0A7
:1018500041155105C1F17F3F11F46F3FA1F1B89FD0
:10186000F001B99FF00D1124EE57FE4F2181721344
:101870002AC02081621327C02281211124C0238124
:1018800034812417350710F421503109241B350BFE
:10189000283C3105C0F42091B7012F7020612093BE
:1018A000B70126E0289FF001299FF00D1124E95788
:1018B000FE4F80818F708061808382EB91E00E9477
:1018C0005B0B0C94DD0B01968770BECF0895CF9211
:1018D000DF92EF92FF920F931F93CF93DF93CDB7D9
:1018E000DEB762970FB6F894DEBF0FBECDBF8C0196
:1018F00085E0F801DE011D9601900D928A95E1F7D1
:10190000D8014C9111965C91119712966C91129797
:101910001396CD90DC9014973091B2017091B30181
:101920008091B5019091B601009709F46BC17F3F9A
:1019300019F43F3F09F466C1E090B401EE2009F4C8
:10194000C0C02091B701C816D90628F0F601E81BDF
:10195000F90BCF0104C0809590958C0D9D1DFF243F
:10196000F394883C910578F0F12C207F09F0C6C0F3
:101970007C2DD98AC88A89890E94BE0B82EB91E0AE
:101980000E945B0BB1C0822F807F09F046C07513A7
:1019900014C0341312C0611110C02F702061209345
:1019A000B7010E94FE0B82EB91E00E945B0B8091DD
:1019B000B701D80115968C932EC0CD2819F15F3F41
:1019C00011F44F3FF9F0F62E61111CC08091800197
:1019D0002091810136E0821709F45AC090E0389FC7
:1019E000F001399FF00D1124EE57FE4F718157130E
:1019F00006C07081471303C07281711103C0019644
:101A00008770E9CFF62E662309F418C18091B701DB
:101A100081608093B701F12C11C1751308C0341394
:101A200006C0611104C08091B701D801C3C04D87C1
:101A30005E878D859E856A8B0E949A0B6A898823B2
:101A4000E1F16623D1F12091B701822F82958F7049
:101A500090E0029774F08091B2019091B301988761
:101A60008F831986DB86CA862C87CE0107960E9453
:101A70005B0B86E0F801A2EBB1E001900D928A9534
:101A8000E1F70E940C0C0E94FE0BFF24F394D6C0D9
:101A90004D875E878D859E850E949910292F2295FE
:101AA0002F7030E0223031050CF0BCC09F7009F07F
:101AB000B6C0805E883008F4C1C0C8010E945B0BCC
:101AC000E4CFC816D90608F453C0F601E81BF90B99
:101AD000CF01883C910508F450C0F12C7C2DD98AA7
:101AE000C88A89890E94BE0BE2EBF1E086E0DF0143
:101AF0001D928A95E9F70E94FE0BA0C0751314C0D1
:101B0000341312C0611110C08091B701F8018583B0
:101B1000C8010E945B0B86E0E2EBF1E0DF011D9261
:101B20008A95E9F7FE2C8AC04D875E878D859E8554
:101B30006A8B0E949A0B6A89882309F4BECF6623B8
:101B400009F4BBCF2091B701822F82958F7090E06E
:101B500002970CF48ECF8091B2019091B3019A83D9
:101B600089831B82DD82CC822E83CE0101967FCFBA
:101B7000809590958C0D9D1DACCFF62E662309F4B3
:101B80009CCF75132EC034132CC02091B70120FDBB
:101B90001FC0822F82958F70D9F0D80115962C9393
:101BA00015978F3049F08F5F982F9295907F822FF5
:101BB0008F70892B15968C93C8010E945B0B86E071
:101BC000F801A2EBB1E001900D928A95E1F793CF75
:101BD00086E0F801A2EBB1E001900D928A95E1F761
:101BE0002DC04D875E878D859E850E949A0B811141
:101BF00040CF8091B70181608093B701C8010E94F6
:101C00005B0B1CC0662309F458CF4D875E878D851A
:101C10009E850E949A0B882309F44FCF2ACF811109
:101C200048CF0CC0243031050CF047CF9F7009F429
:101C300040CFF8019581907F09F03BCF8F2D6296C0
:101C40000FB6F894DEBF0FBECDBFDF91CF911F91CD
:101C50000F91FF90EF90DF90CF9008951F93CF9357
:101C6000DF93CDB7DEB72C970FB6F894DEBF0FBE6B
:101C7000CDBF4F83588769877A878B879C87CE0132
:101C800007960E94670C882369F08F8198852A85C2
:101C90003B85232BF1F19F3F09F063C08F3F09F093
:101CA00060C037C086E0FE013796DE0111960190D4
:101CB0000D928A95E1F76F817885EA85FB853097EB
:101CC00041F17F3F11F46F3F21F12091810130E01C
:101CD000C9010196877099274091800150E08417CF
:101CE000950709F447C069837A83FD83EC8396E006
:101CF000929FD001939FB00D1124AE57BE4FFE01AD
:101D0000319601900D929A95E1F7809381010E949E
:101D1000DD0B16E080918001909181018917C1F15E
:101D2000189FC00111248E579E4F0E94670C882374
:101D300079F1E09180011E9FF0011124EE57FE4FD2
:101D40004081518162817381848195810E94CD0B94
:101D50008091800190E0019687709927809380019F
:101D6000D9CF4F81588569857A858B859C850E945E
:101D7000CD0BCFCF0E94960B109281011092800163
:101D8000E2EBF1E086E0DF011D928A95E9F7C1CF31
:101D90002C960FB6F894DEBF0FBECDBFDF91CF916A
:101DA0001F910895EF92FF920F931F93CF93DF93AC
:101DB0008C01892B09F46CC0F12CEE24E394E8012A
:101DC0002196F8018491843740F4843008F051C0A2
:101DD000813081F0823019F15BC0853709F444C04D
:101DE000A8F19CE7980F903708F052C08F770E94B7
:101DF000D50841C00E5F1F4FFE01C49180E28C0FD9
:101E0000883048F4C7708E2D01C0880FCA95EAF754
:101E10000E947F1114C08C2F0E9402082DC00E5FFB
:101E20001F4FFE01C49180E28C0F883058F4C770B8
:101E30008E2D01C0880FCA95EAF70E9485110E9475
:101E4000A6111AC08C2F0E94D50816C00E5F1F4F16
:101E5000FE01C491CC2381F08FE99FE00197F1F757
:101E600000C00000C150F6CF0E5F1F4FFE01F4907E
:101E700003C00E9402088E018F2D882309F49FCF92
:101E8000EFE9FFE03197F1F700C000008150F5CF96
:101E9000DF91CF911F910F91FF90EF9008950895DA
:101EA0000E944F0F6093BC017093BD018093BE01EF
:101EB0009093BF010C94820B08950C94500F0F93D4
:101EC0001F930091BC011091BD012091BE01309182
:101ED000BF01602B712B822B932B1F910F910C94C0
:101EE000500F0F931F930091BC011091BD012091E1
:101EF000BE013091BF0160237123822393231F9180
:101F00000F910C94500F0F931F930091BC011091EF
:101F1000BD012091BE013091BF016027712782274A
:101F200093271F910F910C94500F08950E94950FC5
:101F30006093B8017093B9018093BA019093BB018B
:101F40000C94820B60E070E0CB010C94960F0F9321
:101F50001F9341E050E060E070E08A019B0104C003
:101F6000000F111F221F331F8A95D2F7C901B80134
:101F70001F910F910C94960F0F931F9341E050E027
:101F800060E070E004C0440F551F661F771F8A95FC
:101F9000D2F78091B8019091B901A091BA01B091A6
:101FA000BB018A019B01082B192B2A2B3B2BC90152
:101FB000B8011F910F910C94960F0F931F9341E05E
:101FC00050E060E070E004C0440F551F661F771FAB
:101FD0008A95D2F740955095609570958091B8019B
:101FE0009091B901A091BA01B091BB018A019B0106
:101FF000082319232A233B23C901B8011F910F91FC
:102000000C94960F0F931F9341E050E060E070E056
:1020100004C0440F551F661F771F8A95D2F7809121
:10202000B8019091B901A091BA01B091BB018A01A8
:102030009B01082719272A273B27C901B8011F91AF
:102040000F910C94960F0F931F930091B80110916C
:10205000B9012091BA013091BB01602B712B822B09
:10206000932B1F910F910C94960F0F931F93009138
:10207000B8011091B9012091BA013091BB016023E0
:102080007123822393231F910F910C94960F0F932A
:102090001F930091B8011091B9012091BA013091BC
:1020A000BB0160277127822793271F910F910C9402
:1020B000960F0895CF92DF92EF92FF920F931F93A6
:1020C000CF93DF938C01C090BC01D090BD01E09014
:1020D000BE01F090BF018091B8019091B901A0912B
:1020E000BA01B091BB01C82AD92AEA2AFB2ACFE15A
:1020F000D0E0D701C6010C2E04C0B695A7959795E0
:1021000087950A94D2F780FF06C0B8018C2F0E94F1
:102110005603019721F4219760F780E001C08C2FCE
:10212000DF91CF911F910F91FF90EF90DF90CF90B3
:102130000895CF93DF93EC010E945A10BE010E94D4
:102140005603DF91CF910895CB010E949910089515
:102150008091C00185958595859508958091C001F0
:102160008770089598E0899F90011124262B209371
:10217000C0010C94BC0F2091C001809582238093F4
:10218000C001982F977069F430E0482F552747FD1C
:1021900050952417350729F08595859585950C94DC
:1021A000DD0F08959091C001977081E009F480E0FF
:1021B000089590911201992321F09091190297FDB1
:1021C00009C02091000130910101F90132969FEF81
:1021D00040E01FC0982F9695969596959F3150F5A3
:1021E000E0910001F0910101E90FF11D877021E0FC
:1021F00030E0A90102C0440F551F8A95E2F7CA01D9
:102200009181892B818308959F3F39F04F5F4E3133
:1022100041F051915813F8CF0DC05111F7CF942FC1
:10222000F5CF9F3F39F0F901E90FF11D97FDFA95C0
:1022300082830895089590911201992321F090913D
:10224000190297FD09C02091000130910101F901A7
:102250003296205E3F4F1FC0982F96959695969583
:102260009F31F0F4E0910001F0910101E90FF11DBF
:10227000877021E030E0A90102C0440F551F8A9504
:10228000E2F7CA018095918189238183089531966F
:10229000E217F30729F090819813F9CF1082F7CF56
:1022A000089581E090E0E0910001F0910101E80FD4
:1022B000F91F1082019680329105A9F70895909137
:1022C000E401892B8093E401089580959091E401C5
:1022D00089238093E40108951092E4010895909178
:1022E000E301892B8093E301089580959091E301A8
:1022F00089238093E30108951092E301089590915A
:10230000E201892B8093E201089580959091E2018A
:1023100089238093E20108951092E2010895809349
:10232000C10108951092C10108958091000190911A
:102330000101FC0131969C01205E3F4F80E09191AC
:1023400091118F5FE217F307D1F70895E091000133
:10235000F09101018091E4018083E0910001F0910E
:10236000010190818091E301892B8083E09100013C
:10237000F091010190818091E201892B808380910D
:10238000C101882361F0E0910001F0910101908189
:10239000892B80830E94951181111092C101809137
:1023A0000001909101010C94D0066DEE7EEF80E06B
:1023B00090E00E94FB1F60E082E090E00E94E91F35
:1023C00060E083E090E00E94E91F60E084E090E03C
:1023D0000E94E91F60E085E090E00C94E91F80E036
:1023E00090E00E94E31F21E08D3E9E4F09F020E027
:1023F000822F089582E090E00C94DB1F83E090E050
:102400000C94DB1F84E090E00C94DB1F682F84E0C9
:1024100090E00C94E91F80911F02843021F110920A
:10242000E60120E488E190E00FB6F894A895809347
:1024300060000FBE2093600080E00E94360383B7E7
:10244000817F846083BF83B7816083BF78948895E0
:1024500083B78E7F83BF88E10FB6F89480936000C6
:10246000109260000FBE089508950895CF930E94C2
:1024700034120E9401060E943512C0E08C2F0E9487
:10248000B506892B29F4CF5FC530C1F780E001C0C4
:1024900081E0CF9108950E94960B0E94C4060C948F
:1024A00036031F920F920FB60F9211248F939F93B2
:1024B000AF93BF938091E601811113C08091150203
:1024C00090911602A0911702B09118024196A11D99
:1024D000B11D8093150290931602A0931702B0933A
:1024E0001802BF91AF919F918F910F900FBE0F90E7
:1024F0001F90189582E084BD93E095BD9AEF97BD3B
:1025000080936E0008952FB7F894809115029091F2
:102510001602A0911702B09118022FBF0895CF9212
:10252000DF92EF92FF920F931F932FB7F894409191
:1025300015025091160260911702709118022FBF78
:102540006A017B01EE24FF248C0120E030E0C016FC
:10255000D106E206F30610F4415051099A01281BF6
:10256000390BC9011F910F91FF90EF90DF90CF9031
:10257000089578941F920F920FB60F9211248F93A3
:102580009F93AF93BF938091150290911602A091F3
:102590001702B09118020196A11DB11D809315027A
:1025A00090931602A0931702B0931802BF91AF91B7
:1025B0009F918F910F900FBE0F901F9018950E94C2
:1025C0008D1BF8942FEF87EA91E6215080409040D0
:1025D000E1F700C0000087E090EBDC018093280267
:1025E00090932902A0932A02B0932B022CE088E159
:1025F00090E00FB6F894A895809360000FBE2093EA
:102600006000FFCF0E94EF11811102C00E94D5111E
:102610000E94FA118093E5010E94021290E09093CB
:102620001A02809319020E94FE11682F70E080E068
:1026300090E00C945D0F8091E90180FF0BC06091E8
:10264000050185E0689FB001112475956795759522
:1026500067952BC081FF09C06091050185E0689FE7
:10266000B00111247595679520C082FF07C0609165
:10267000050185E0689FB001112417C09091EA011F
:102680009923D1F060910401961788F720910501F4
:1026900085E0289F90011124929FA001939F500DE7
:1026A000112470E0CA010E94AD1F6038710540F42A
:1026B0006115710539F002C065E070E0862F08955C
:1026C0008FE7089581E008958091E90180FF08C0B7
:1026D0006091030170E0759567957595679521C0C8
:1026E00081FF06C06091030170E07595679519C080
:1026F00082FF04C06091030170E010C09091EA0174
:102700009923C1F0609102019617A0F7809103010F
:10271000899FC001112470E00E94AD1F60387105CF
:1027200028F46115710521F0862F08958FE708952B
:1027300081E0089561E070E0F4CF803F21F40E94D1
:102740001B13819504C0813F29F40E941B138093C1
:10275000ED010895823F21F40E941B13819504C06E
:10276000833F29F40E941B138093EC010895893F55
:1027700019F40E94641305C08A3F31F40E94641367
:1027800081958093EE0108958B3F21F40E9464139C
:10279000819504C08C3F29F40E9464138093EF015B
:1027A0000895843F21F48091EB01816017C0853F3B
:1027B00021F48091EB01826011C0863F21F4809169
:1027C000EB0184600BC0873F21F48091EB018860AE
:1027D00005C0883F31F48091EB0180618093EB016B
:1027E00008958D3F21F48091E90181600BC08E3FF7
:1027F00021F48091E901826005C08F3F29F4809126
:10280000E90184608093E9010895803F39F4809163
:10281000ED0187FF6CC01092ED0169C0813F29F482
:102820008091ED011816BCF362C09091EC01823FDB
:1028300029F497FF5CC01092EC0159C0833F19F452
:102840001916CCF354C0893F41F48091EE0118165B
:102850000CF04DC01092EE014AC08A3F29F48091DD
:10286000EE0187FF44C0F6CF8B3F39F48091EF0132
:1028700087FF3DC01092EF013AC08C3F29F4809150
:10288000EF011816BCF333C0843F21F48091EB01B3
:102890008E7F17C0853F21F48091EB018D7F11C0A1
:1028A000863F21F48091EB018B7F0BC0873F21F4A1
:1028B0008091EB01877F05C0883F31F48091EB0167
:1028C0008F7E8093EB0113C08D3F21F48091E9014D
:1028D0008E7F0BC08E3F21F48091E9018D7F05C072
:1028E0008F3F29F48091E9018B7F8093E9018091EA
:1028F000EC0181110EC08091ED0181110AC080911F
:10290000EE01811106C08091EF01811102C0109289
:10291000EA0108958BEE91E00E94DB060E9483128B
:102920009093E8018093E70108951F93CF93DF937D
:102930008091E7019091E8010E948F12AC01909183
:10294000EA01992321F02091060130E006C0209190
:1029500007018AE0289F900111244217530708F4C9
:1029600086C08091EC01C091ED01D091EE011091F3
:10297000EF01811107C0C11176C0D11174C01111CE
:1029800072C075C09F3F19F09F5F9093EA011816BF
:1029900024F40E941B138093EC018091EC0187FFCB
:1029A00005C00E941B1381958093EC011C1624F432
:1029B0000E941B138093ED018091ED0187FF05C0FC
:1029C0000E941B1381958093ED016091EC016623B9
:1029D00039F1C091ED01CC2319F1772767FD70958E
:1029E000872F972F0E94BE1E23E333E343E35FE369
:1029F0000E94221F0E948B1E6093EC016C2F772790
:102A000067FD7095872F972F0E94BE1E23E333E347
:102A100043E35FE30E94221F0E948B1E6093ED013F
:102A20001D1624F40E9464138093EE018091EE0140
:102A300087FF05C00E94641381958093EE011116F3
:102A400024F40E9464138093EF018091EF0187FFCB
:102A500005C00E94641381958093EF01DF91CF91AF
:102A60001F910C948A149F3F09F08ECF96CFDF916F
:102A7000CF911F910895EBEEF1E085E0DF011D920B
:102A80008A95E9F71092EA011092E90108958330DE
:102A900081F128F4813059F08230D1F008958530E9
:102AA00009F449C0B8F1863009F456C00895809100
:102AB0000701262F30E0280F311D2F3F310524F468
:102AC000680F6093070108958FEF809307010895C1
:102AD00080910601262F30E0280F311D2F3F310550
:102AE00024F4680F6093060108958FEF8093060128
:102AF000089580910501262F30E0280F311D2F3FCA
:102B0000310524F4680F6093050108958FEF8093D9
:102B10000501089580910401262F30E0280F311D12
:102B20002F3F310524F4680F6093040108958FEF5F
:102B300080930401089580910301262F30E0280F2F
:102B4000311D2F3F310524F4680F60930301089570
:102B50008FEF80930301089580910201262F30E0CA
:102B6000280F311D2F3F310524F4680F60930201B7
:102B700008958FEF809302010895833011F128F4B6
:102B8000813049F0823091F00895853081F120F153
:102B90008630C1F1089580910701681720F4861BE3
:102BA000809307010895109207010895809106010E
:102BB000681720F4861B8093060108951092060181
:102BC000089580910501681720F4861B8093050104
:102BD000089510920501089580910401681720F46A
:102BE000861B80930401089510920401089580913A
:102BF0000301681720F4861B809303010895109247
:102C00000301089580910201681720F4861B8093C8
:102C1000020108951092020108950F931F938732C5
:102C200008F04DC08E3108F093C0803109F47DC0AA
:102C300008F5873009F46BC068F4863009F0A3C04A
:102C40008091E501817F8E7F8093E50181E0809313
:102C5000F1019AC08B3009F48FC08E3009F093C017
:102C60008091E50182FB222720F991E0922790FBD9
:102C700082F964C0863109F47FC088F4813109F09B
:102C800082C00E94960B8091190287FB222720F9AF
:102C900091E0922790FB87F9809319026DC08931EA
:102CA00009F46AC08B3109F06EC08091E50181FBA7
:102CB000222720F991E0922790FB81F93FC08833C9
:102CC00009F45AC050F4893209F458C0853309F424
:102CD00055C0873209F452C056C0833409F44EC03F
:102CE00028F48A3308F44FC0895333C0883409F07C
:102CF0004AC00E94960B0FEF13ED20E301501040E5
:102D00002040E1F700C000000E94DF1235C0809132
:102D1000E501982F9095917090FB80F98093E501E3
:102D200091112AC0897F877F10C08091E50183FBC4
:102D3000222720F991E0922790FB83F98093E50107
:102D40009923D1F08091E50181608093E50114C061
:102D50008D5141E050E060E070E08A019B0104C0C9
:102D6000000F111F221F331F8A95D2F7C901B80126
:102D70000E945D0F0E94960B81E006C061E070E04A
:102D800080E090E0F5CF80E01F910F91089580E002
:102D9000089580E008958E518A3030F4E82FF0E0F5
:102DA000E95DFE4F8081089580E00895CF93C82F9C
:102DB0008091F101813069F018F08230C9F183C04F
:102DC000E0910001F09101018081823209F07DC023
:102DD00007C0E0910001F09101018081823261F42D
:102DE0008C2F0E94C716811104C08C2F0E940D16D3
:102DF0001DC081E090E01AC08C2F0E94C91681117D
:102E000014C0C43179F048F4CB3079F0C03109F006
:102E100060C082E08093F10108C0C93219F0C83364
:102E200021F057C01092F10154C081E0817053C06D
:102E3000C93289F118F5C43171F1B0F4C73009F025
:102E400046C08EE18093070182E3809306018AE009
:102E50008093050184E18093040188E0809303015D
:102E600088E28093020133C082EE8C0F863078F5C1
:102E70008C2F0E94CB168093F00129C0CE34E9F04C
:102E800020F4CB3421F56AE013C0C13579F0C235A6
:102E9000F1F461E00DC08091F001882319F01092E7
:102EA000F00115C081E08093F10115C061E006C01A
:102EB0008091F0010E9447150AC06AE08091F001FC
:102EC0000E94BD1504C01092F10180E004C081E0B1
:102ED00002C080E0ABCFCF91089580911202089597
:102EE0000F931F93CF93DF9300D01F92CDB7DEB720
:102EF0008C010E94DB19823011F0853019F593E0C6
:102F000099831B830A839093E9008FEF9091E800E7
:102F1000815095FD06C095ED9A95F1F7000081115D
:102F2000F5CF8091E80085FF0DC040E050E063E000
:102F300070E0CE0101960E94F8198091E8008E772A
:102F40008093E8000F900F900F90DF91CF911F9129
:102F50000F910895CF93DF9300D01F92CDB7DEB7C6
:102F600020911F02243031F522E0298380589109F5
:102F70009B838A8383E08093E9008FEF9091E80040
:102F8000815095FD06C095ED9A95F1F700008111ED
:102F9000F5CF8091E80085FF0DC040E050E063E090
:102FA00070E0CE0101960E94F8198091E8008E77BA
:102FB0008093E8000F900F900F90DF91CF910895CC
:102FC000CF93DF93EC010E94DB19823011F0853042
:102FD000F9F482E08093E9009FEF8091E80091503E
:102FE00085FD06C085ED8A95F1F700009111F5CFBA
:102FF0008091E80085FF0CC040E050E065E070E0A3
:10300000CE010E94F8198091E8008E778093E80045
:10301000DF91CF910895CF93DF93EC010E94DB19EC
:10302000823019F0853009F047C080911201882361
:10303000E1F08091190287FF18C084E08093E900D5
:103040008FEF9091E800815095FD06C095E19A952B
:10305000F1F700008111F5CF8091E80085FF2CC0C9
:1030600040E050E060E270E017C081E08093E9004A
:103070008FEF9091E800815095FD06C095ED9A95EF
:10308000F1F700008111F5CF8091E80085FF14C0B1
:1030900040E050E068E070E0CE010E94F8198091B5
:1030A000E8008E778093E80080E2FE01A2EFB1E0B5
:1030B00001900D928A95E1F7DF91CF91089580916B
:1030C0001E02811109C00E948D1B0E94EA1B809183
:1030D000E20084608093E200089510921E02089539
:1030E000089508950C944B1242E061EC81E00E9437
:1030F000071B42E061EC82E00E94071B42E061ECAA
:1031000083E00E94071B42E261EC84E00C94071B01
:1031100080912102833009F455C030F4813071F080
:10312000823009F48EC008958A3009F47AC08B3059
:1031300009F460C0893009F09CC020C08091200251
:10314000813A09F096C08091E800877F8093E8007B
:103150008091240290912502892B21F460E282EF74
:1031600091E003C060E080E090E070E00E94431ACC
:103170008091E8008B778093E80008958091200289
:10318000813209F076C08091240290912502009747
:1031900019F0039709F06DC08091E800877F809354
:1031A000E8008091E80082FD05C080911F02811136
:1031B000F8CF5FC08091F100809312028091E80007
:1031C0008B7753C080912002813A09F052C08091E0
:1031D000240290912502892B09F04BC08091E800D0
:1031E000877F8093E8008091E80080FFFCCF80918A
:1031F000120136C0809120028132D9F580912402DB
:1032000090912502892BA9F58091E800877F809312
:10321000E8000E943C1B80912202809312010C94D2
:10322000960B80912002813221F58091E800877F02
:103230008093E8000E943C1B80912302809313023C
:10324000089580912002813AA1F48091E800877F5F
:103250008093E8008091E80080FFFCCF809113020A
:103260008093F1008091E8008E778093E8000C94C1
:103270003C1B089584B7877F84BF88E10FB6F8941C
:1032800080936000109260000FBE80E88093610020
:10329000109261000E9413070E948D1B0E94EA1B7E
:1032A0008091E20084608093E20078940E94701E16
:1032B0000E94150788E091E00E94BF0680911F02DE
:1032C000853069F40E940B1280911D028823B1F3AE
:1032D0000E943612882391F30E94E219EFCF0E94D8
:1032E0001B07ECCF292F332723303105C9F064F4B5
:1032F0002130310581F02230310509F043C08DE6DF
:1033000090E02AE032E042C021323105F1F0223271
:10331000310541F137C082E190E027E732E036C065
:1033200099278130910541F08230910541F0892B38
:1033300049F5E6E0F2E005C0ECEFF1E002C0E0EEB6
:10334000F1E0849190E09F0121C06430D8F4E62F31
:10335000F0E0EE0FFF1FE35CFE4F2081318189E03A
:1033600090E014C0643070F470E0FB01EE0FFF1FBA
:10337000EB5CFE4F20813181FB01EF5CFE4F8081D1
:1033800090E004C080E090E020E030E0FA0131837A
:10339000208308950895CF93C82F0E94CA19C0931F
:1033A0001402CF91089580911F02843011F081E0C2
:1033B000089582E0089580911402811102C00C9456
:1033C000D319089580E189BD82E189BD09B400FE69
:1033D000FDCF8091D8008F7D8093D8008091E00050
:1033E00082608093E0008091E00081FDFCCF089531
:1033F000CF92DF92EF92FF920F931F93CF93DF93C1
:10340000EC018B016A010E945B1B811133C0C11466
:10341000D10439F0F60180819181081B190BC80F86
:10342000D91FE12CF12C0115110519F18091E8004B
:1034300085FD16C08091E8008E778093E800C11466
:10344000D10449F0F60180819181E80EF91EF182E4
:10345000E08285E00FC00E945B1B882321F30AC035
:1034600089918093F10001501109FFEFEF1AFF0AD3
:10347000DACF80E0DF91CF911F910F91FF90EF9015
:10348000DF90CF90089520912602309127022617D1
:10349000370748F06115710539F42091E8002E775F
:1034A0002093E80001C0B90140E061157105A9F160
:1034B00020911F02222309F443C0253009F442C0A1
:1034C0002091E80023FD40C02091E80022FD32C099
:1034D0002091E80020FFE9CF4091F3002091F20015
:1034E00030E0342BFC01CF016115710559F0283013
:1034F000310540F481918093F100615071092F5F93
:103500003F4FF1CF41E02830310509F040E02091F4
:10351000E8002E772093E800C8CF4111C9CF0AC038
:1035200080911F02882361F0853061F08091E8006E
:1035300083FD0AC08091E80082FFF2CF80E0089509
:1035400082E0089583E0089581E0089520912602A5
:10355000309127022617370748F06115710539F4B5
:103560002091E8002E772093E80001C0B901FC010A
:1035700020E06115710591F180911F02882309F403
:1035800040C0853009F43FC08091E80083FD3DC014
:103590008091E80082FD2FC08091E80080FFE9CF94
:1035A0002091F3008091F20090E0922B611571055B
:1035B00059F08830910540F424912093F100319620
:1035C000615071090196F2CF21E0089709F020E0DF
:1035D0008091E8008E778093E800CBCF2111CCCF8B
:1035E0000AC080911F02882361F0853061F08091CC
:1035F000E80083FD0AC08091E80082FFF2CF80E0FE
:10360000089582E0089583E0089581E00895982F59
:10361000973058F59093E900981739F07091EC00C5
:103620002091ED005091F00003C0242F762F50E040
:1036300021FF19C03091EB003E7F3093EB003091B9
:10364000ED003D7F3093ED003091EB003160309321
:10365000EB007093EC002093ED005093F00020916C
:10366000EE0027FF07C09F5FD3CF8F708093E900E4
:1036700081E0089580E008958091200287FF11C0C5
:103680008091E80082FD05C080911F028111F8CF72
:1036900011C08091E8008B770BC080911F028823B6
:1036A00049F08091E80080FFF8CF8091E8008E77A4
:1036B0008093E80008952091E4003091E50095E6BC
:1036C000A9012091EC00822F817020FF21C0809100
:1036D000E80080FD1BC080911F02882389F085309F
:1036E00089F08091EB0085FD0FC02091E4003091BE
:1036F000E5002417350729F3915011F784E0089568
:1037000082E0089583E0089581E0089580E00895BF
:103710002091E80022FFDFCF08950E94FB1B0E944A
:10372000031CE0EEF0E0808181608083E8EDF0E052
:1037300080818F77808319BCA7EDB0E08C918E7F5C
:103740008C9380818F7E808310921E0208950F9348
:103750001F93CF93DF930E94FB1B0E94031CC8EDB5
:10376000D0E088818F77888388818068888388818A
:103770008F7D888319BC10921F0210921B02109239
:103780001D0210921C0200EE10E0F80180818B7F78
:10379000808388818160888342E060E080E00E94CD
:1037A000071BE1EEF0E080818E7F8083E2EEF0E0A7
:1037B000808181608083808188608083F80180813E
:1037C0008E7F8083888180618883DF91CF911F9174
:1037D0000F910895E8EDF0E080818F7E8083E7ED22
:1037E000F0E080818160808384E082BF81E080930B
:1037F0001E020C94A71BE8EDF0E080818E7F808391
:103800001092E20008951092DA001092E1000895FB
:103810001F920F920FB60F9211242F933F934F9345
:103820005F936F937F938F939F93AF93BF93EF9328
:10383000FF938091E10082FF0BC08091E20082FF44
:1038400007C08091E1008B7F8093E1000E946F1E92
:103850008091DA0080FF1FC08091D80080FF1BC0DC
:103860008091DA008E7F8093DA008091D90080FF0A
:103870000DC080E189BD82E189BD09B400FEFDCFA4
:1038800081E080931F020E945F1805C019BC10924E
:103890001F020E946D188091E10080FF19C0809185
:1038A000E20080FF15C08091E2008E7F8093E200ED
:1038B0008091E20080618093E2008091D800806274
:1038C0008093D80019BC85E080931F020E94711874
:1038D0008091E10084FF30C08091E20084FF2CC021
:1038E00080E189BD82E189BD09B400FEFDCF8091F0
:1038F000D8008F7D8093D8008091E1008F7E8093E7
:10390000E1008091E2008F7E8093E2008091E200EE
:1039100081608093E20080911B02882311F084E093
:1039200007C08091E30087FD02C081E001C083E011
:1039300080931F020E9472188091E10083FF29C0CA
:103940008091E20083FF25C08091E100877F809312
:10395000E10082E080931F0210921B028091E1003F
:103960008E7F8093E1008091E2008E7F8093E20061
:103970008091E20080618093E20042E060E080E0BC
:103980000E94071B8091F00088608093F0000E94E5
:103990007018FF91EF91BF91AF919F918F917F919F
:1039A0006F915F914F913F912F910F900FBE0F90AC
:1039B0001F9018951F920F920FB60F9211242F93FC
:1039C0003F934F935F936F937F938F939F93AF93A7
:1039D000BF93CF93DF93EF93FF93C091E900CF7034
:1039E0008091EC00D82FD17080FDD0E81092E900D2
:1039F0008091F000877F8093F00078940E941E1DD4
:103A00001092E9008091F00088608093F000CD2B47
:103A1000CF70C093E900FF91EF91DF91CF91BF91FB
:103A2000AF919F918F917F916F915F914F913F9156
:103A30002F910F900FBE0F901F9018951F93CF934B
:103A4000DF93CDB7DEB7AA970FB6F894DEBF0FBEEF
:103A5000CDBFE0E2F2E088E08E0F9091F10091930B
:103A60008E13FBCF0E9488188091E80083FF1FC14E
:103A70008091200290912102492F50E04A30510557
:103A800008F015C1FA01E556FF4F0C94C11F8038AC
:103A900081F0823809F00BC1809124028F708093ED
:103AA000E9008091EB0085FB882780F91092E900FE
:103AB00006C080911C0290911D029111826090912C
:103AC000E800977F9093E8008093F1001092F10056
:103AD000C8C0282F2D7F09F0EAC0882319F0823052
:103AE00061F0E5C080912202813009F0E0C093309E
:103AF00009F080E080931D022BC080912202811189
:103B000027C0809124028F7009F4D1C08093E9000E
:103B10002091EB0020FF1CC0933021F48091EB003A
:103B2000806214C09091EB0090619093EB0021E0D3
:103B300030E0A90102C0440F551F8A95E2F7409377
:103B4000EA001092EA008091EB0088608093EB001D
:103B50001092E9008091E800877F86C08111A7C09C
:103B6000109122021F778091E3008078812B80934F
:103B7000E3008091E800877F8093E8000E943C1B6F
:103B80008091E80080FFFCCF8091E3008068809303
:103B9000E300111102C082E001C083E080931F02A4
:103BA00086C08058823008F082C0809122029091B5
:103BB00023028C3D53E0950779F583E08A838AE2FE
:103BC00089834FB7F894DE01139620E03EE051E27E
:103BD000E32FF0E050935700E49120FF03C0E295FB
:103BE000EF703F5FEF708E2F90E0EA3010F0C796D5
:103BF00001C0C0968D939D932F5F243149F74FBF2D
:103C00008091E800877F8093E8006AE270E0CE014F
:103C100001960E94431A14C0AE014F5F5F4F60913E
:103C200024020E947219BC01892B09F440C09091B2
:103C3000E800977F9093E80089819A810E94A61AF4
:103C40008091E8008B778093E80031C0803879F567
:103C50008091E800877F8093E80080911B02809329
:103C6000F1008091E8008E778093E8000E943C1B71
:103C70001EC081111CC0909122029230C0F480912C
:103C8000E800877F8093E80090931B020E943C1B12
:103C900080911B02811106C08091E30087FD02C064
:103CA00081E001C084E080931F020E94741880911B
:103CB000E80083FF0AC08091E800877F8093E800D6
:103CC0008091EB0080628093EB00AA960FB6F89487
:103CD000DEBF0FBECDBFDF91CF911F910895089534
:103CE000CF9380911F028823A1F0C091E900CF708B
:103CF0009091EC00892F817090FD80E8C82B109284
:103D0000E9008091E80083FD0E941E1DCF70C093E2
:103D1000E900CF91089504D06894B1118DC0089541
:103D200070D088F09F5790F0B92F9927B751A0F025
:103D3000D1F0660F771F881F991F1AF0BA95C9F73F
:103D400012C0B13081F077D0B1E0089574C0672F10
:103D5000782F8827B85F39F0B93FCCF386957795EF
:103D60006795B395D9F73EF49095809570956195D8
:103D70007F4F8F4F9F4F0895E89409C097FB3EF403
:103D800090958095709561957F4F8F4F9F4F9923A8
:103D9000A9F0F92F96E9BB279395F6958795779526
:103DA0006795B795F111F8CFFAF4BB0F11F460FFE6
:103DB0001BC06F5F7F4F8F4F9F4F16C0882311F03E
:103DC00096E911C0772321F09EE8872F762F05C052
:103DD000662371F096E8862F70E060E02AF09A95ED
:103DE000660F771F881FDAF7880F9695879597F9E2
:103DF000089557FD9058440F551F59F05F3F71F0DB
:103E00004795880F97FB991F61F09F3F79F0879541
:103E10000895121613061406551FF2CF4695F1DFCA
:103E200008C0161617061806991FF1CF869571055A
:103E3000610508940895E894BB2766277727CB018E
:103E400097F908950BD078C069D028F06ED018F09B
:103E5000952309F05AC05FC01124EECFCADFA0F34A
:103E6000959FD1F3950F50E0551F629FF001729F0F
:103E7000BB27F00DB11D639FAA27F00DB11DAA1F2E
:103E8000649F6627B00DA11D661F829F2227B00D7B
:103E9000A11D621F739FB00DA11D621F839FA00D06
:103EA000611D221F749F3327A00D611D231F849F56
:103EB000600D211D822F762F6A2F11249F575040AD
:103EC0008AF0E1F088234AF0EE0FFF1FBB1F661F48
:103ED000771F881F91505040A9F79E3F510570F001
:103EE00014C0AACF5F3FECF3983EDCF3869577953C
:103EF0006795B795F795E7959F5FC1F7FE2B880FFC
:103F0000911D9695879597F9089597F99F6780E891
:103F100070E060E008959FEF80EC089500240A941B
:103F20001616170618060906089500240A94121694
:103F30001306140605060895092E0394000C11F4C7
:103F4000882352F0BB0F40F4BF2B11F460FF04C074
:103F50006F5F7F4F8F4F9F4F089597FB072E16F48B
:103F6000009407D077FD09D00E94C71F07FC05D039
:103F70003EF4909581959F4F0895709561957F4F80
:103F80000895EE0FFF1F0590F491E02D0994AA1BF0
:103F9000BB1B51E107C0AA1FBB1FA617B70710F034
:103FA000A61BB70B881F991F5A95A9F78095909566
:103FB000BC01CD010895F999FECF92BD81BDF89A5B
:103FC000992780B50895A8E1B0E042E050E00C9454
:103FD0000320262FF999FECF92BD81BDF89A019753
:103FE00000B4021639F01FBA20BD0FB6F894FA9A41
:103FF000F99A0FBE08950196272F0E94EA1F0C948C
:10400000E91FDC01CB01FC01F999FECF06C0F2BD2E
:10401000E1BDF89A319600B40D9241505040B8F786
:064020000895F894FFCFA3
:10402600C2012808140A321E6D170B18E017AA17CA
:10403600701701F0F1C667663694313735349796B6
:1040460033329091929395010203040506070809FD
:1040560000404D36394503F802C20289021C02357A
:06406600024E0267020099
:00000001FF
